{
  "_format": "hh-sol-artifact-1",
  "contractName": "TokenElh",
  "sourceName": "contracts/TokenElh.sol",
  "abi": [
    {
      "inputs": [],
      "stateMutability": "nonpayable",
      "type": "constructor"
    },
    {
      "inputs": [
        {
          "internalType": "address",
          "name": "account",
          "type": "address"
        }
      ],
      "name": "balanceOf",
      "outputs": [
        {
          "internalType": "uint256",
          "name": "",
          "type": "uint256"
        }
      ],
      "stateMutability": "view",
      "type": "function"
    },
    {
      "inputs": [],
      "name": "name",
      "outputs": [
        {
          "internalType": "string",
          "name": "",
          "type": "string"
        }
      ],
      "stateMutability": "view",
      "type": "function"
    },
    {
      "inputs": [],
      "name": "owner",
      "outputs": [
        {
          "internalType": "address",
          "name": "",
          "type": "address"
        }
      ],
      "stateMutability": "view",
      "type": "function"
    },
    {
      "inputs": [],
      "name": "symbol",
      "outputs": [
        {
          "internalType": "string",
          "name": "",
          "type": "string"
        }
      ],
      "stateMutability": "view",
      "type": "function"
    },
    {
      "inputs": [],
      "name": "totalSupply",
      "outputs": [
        {
          "internalType": "uint256",
          "name": "",
          "type": "uint256"
        }
      ],
      "stateMutability": "view",
      "type": "function"
    },
    {
      "inputs": [
        {
          "internalType": "address",
          "name": "to",
          "type": "address"
        },
        {
          "internalType": "uint256",
          "name": "amount",
          "type": "uint256"
        }
      ],
      "name": "transfer",
      "outputs": [],
      "stateMutability": "nonpayable",
      "type": "function"
    }
  ],
  "bytecode": "0x60806040526040518060400160405280600f81526020017f456c6861646a69277320546f6b656e00000000000000000000000000000000008152506000908051906020019061004f92919061013b565b506040518060400160405280600381526020017f454c4800000000000000000000000000000000000000000000000000000000008152506001908051906020019061009b92919061013b565b506103e86002553480156100ae57600080fd5b50600254600460003373ffffffffffffffffffffffffffffffffffffffff1673ffffffffffffffffffffffffffffffffffffffff1681526020019081526020016000208190555033600360006101000a81548173ffffffffffffffffffffffffffffffffffffffff021916908373ffffffffffffffffffffffffffffffffffffffff16021790555061023f565b8280546101479061020d565b90600052602060002090601f01602090048101928261016957600085556101b0565b82601f1061018257805160ff19168380011785556101b0565b828001600101855582156101b0579182015b828111156101af578251825591602001919060010190610194565b5b5090506101bd91906101c1565b5090565b5b808211156101da5760008160009055506001016101c2565b5090565b7f4e487b7100000000000000000000000000000000000000000000000000000000600052602260045260246000fd5b6000600282049050600182168061022557607f821691505b60208210811415610239576102386101de565b5b50919050565b61091d8061024e6000396000f3fe608060405234801561001057600080fd5b50600436106100625760003560e01c806306fdde031461006757806318160ddd1461008557806370a08231146100a35780638da5cb5b146100d357806395d89b41146100f1578063a9059cbb1461010f575b600080fd5b61006f61012b565b60405161007c9190610599565b60405180910390f35b61008d6101b9565b60405161009a91906105d4565b60405180910390f35b6100bd60048036038101906100b89190610652565b6101bf565b6040516100ca91906105d4565b60405180910390f35b6100db610208565b6040516100e8919061068e565b60405180910390f35b6100f961022e565b6040516101069190610599565b60405180910390f35b610129600480360381019061012491906106d5565b6102bc565b005b6000805461013890610744565b80601f016020809104026020016040519081016040528092919081815260200182805461016490610744565b80156101b15780601f10610186576101008083540402835291602001916101b1565b820191906000526020600020905b81548152906001019060200180831161019457829003601f168201915b505050505081565b60025481565b6000600460008373ffffffffffffffffffffffffffffffffffffffff1673ffffffffffffffffffffffffffffffffffffffff168152602001908152602001600020549050919050565b600360009054906101000a900473ffffffffffffffffffffffffffffffffffffffff1681565b6001805461023b90610744565b80601f016020809104026020016040519081016040528092919081815260200182805461026790610744565b80156102b45780601f10610289576101008083540402835291602001916102b4565b820191906000526020600020905b81548152906001019060200180831161029757829003601f168201915b505050505081565b60003390506103026040518060400160405280601d81526020017f0953656e64696e67202573200a0966726f6d202573200a09746f202573000000815250838386610435565b81600460008373ffffffffffffffffffffffffffffffffffffffff1673ffffffffffffffffffffffffffffffffffffffff168152602001908152602001600020541015610384576040517f08c379a000000000000000000000000000000000000000000000000000000000815260040161037b906107c2565b60405180910390fd5b81600460008373ffffffffffffffffffffffffffffffffffffffff1673ffffffffffffffffffffffffffffffffffffffff16815260200190815260200160002060008282546103d39190610811565b9250508190555081600460008573ffffffffffffffffffffffffffffffffffffffff1673ffffffffffffffffffffffffffffffffffffffff16815260200190815260200160002060008282546104299190610845565b92505081905550505050565b6104d18484848460405160240161044f949392919061089b565b6040516020818303038152906040527feac89281000000000000000000000000000000000000000000000000000000007bffffffffffffffffffffffffffffffffffffffffffffffffffffffff19166020820180517bffffffffffffffffffffffffffffffffffffffffffffffffffffffff83818316178352505050506104d7565b50505050565b60008151905060006a636f6e736f6c652e6c6f679050602083016000808483855afa5050505050565b600081519050919050565b600082825260208201905092915050565b60005b8381101561053a57808201518184015260208101905061051f565b83811115610549576000848401525b50505050565b6000601f19601f8301169050919050565b600061056b82610500565b610575818561050b565b935061058581856020860161051c565b61058e8161054f565b840191505092915050565b600060208201905081810360008301526105b38184610560565b905092915050565b6000819050919050565b6105ce816105bb565b82525050565b60006020820190506105e960008301846105c5565b92915050565b600080fd5b600073ffffffffffffffffffffffffffffffffffffffff82169050919050565b600061061f826105f4565b9050919050565b61062f81610614565b811461063a57600080fd5b50565b60008135905061064c81610626565b92915050565b600060208284031215610668576106676105ef565b5b60006106768482850161063d565b91505092915050565b61068881610614565b82525050565b60006020820190506106a3600083018461067f565b92915050565b6106b2816105bb565b81146106bd57600080fd5b50565b6000813590506106cf816106a9565b92915050565b600080604083850312156106ec576106eb6105ef565b5b60006106fa8582860161063d565b925050602061070b858286016106c0565b9150509250929050565b7f4e487b7100000000000000000000000000000000000000000000000000000000600052602260045260246000fd5b6000600282049050600182168061075c57607f821691505b602082108114156107705761076f610715565b5b50919050565b7f42616c616e636520697320696e73756666696369656e74000000000000000000600082015250565b60006107ac60178361050b565b91506107b782610776565b602082019050919050565b600060208201905081810360008301526107db8161079f565b9050919050565b7f4e487b7100000000000000000000000000000000000000000000000000000000600052601160045260246000fd5b600061081c826105bb565b9150610827836105bb565b92508282101561083a576108396107e2565b5b828203905092915050565b6000610850826105bb565b915061085b836105bb565b9250827fffffffffffffffffffffffffffffffffffffffffffffffffffffffffffffffff038211156108905761088f6107e2565b5b828201905092915050565b600060808201905081810360008301526108b58187610560565b90506108c460208301866105c5565b6108d1604083018561067f565b6108de606083018461067f565b9594505050505056fea26469706673582212207a6fa340f9310c7c7c9b488b1f03b1b1e475860f865b1ff08250543a67834bda64736f6c63430008080033",
  "linkReferences": {},
  "deployedLinkReferences": {}
}